:20E000007EE03F7EE0DB7EE1367EE0EB7EE1557EE17F7EE0777EE0A97EE0A57EE0867EE099
:20E020008A7EE0AF7EE8AF7EE27C7EE23E7EE3747EE3F57EEA817EEBFC7EEC537EECF81012
:20E04000CEC0007FBAEB86FFB7C0008671B7C0028604B7C001B7C0038626B7C0008611B7B5
:20E06000C0028683B7C403860CB7C4007FC4018603B7C403160489E7E2F6C405C42027F9D0
:20E08000B7C400E6E039862020EDA7E2A68027048DE520F8A6E03981092E058B308DD8391A
:20E0A0008B578DD339840F20EE4444444420E8A7E2444444448DE0A6E0840F8DDA39340435
:20E0C000FCBAECC30001FDBAECB6C405840127F0B6C400C601F7BAEB3504397DBAEB27DEA6
:20E0E000B6C405840127F9B6C4003934128DEC8D86810A2607860DBDE0772025810D260718
:20E10000860ABDE077201A81082708817F2704A78020DA301F8620BDE077860817FF5820F8
:20E12000CC4FA780351239A680270A812027F8810927F4A68239A68081302D1481392E03FD
:20E14000840F398A2081612D0781662E03805739A68286FF398DDF1F898DDB81FF270858A2
:20E16000585858A7E2EBE01F9839A7E2A663E6645849584958495849EAE0A762E76339A7F6
:20E18000E24FA7E2A7E28DAE81FF271A8DDC8DA681FF27128DD48D9E81FF270A8DCC8D9632
:20E1A00081FF27028DC410AEE1A6E03934148EC002E684C41F492402CA20E784CA40E784E9
:20E1C000E68458C43F492402CA4054E784CA40E784E68458C43F492402CA4054E784CA40C6
:20E1E000E784E68458C43F492402CA4054E784CA40E784E68458C43F492402CA4054E78445
:20E20000CA40E784E68458C43F492402CA4054E784CA40E784E68458C43F492402CA405485
:20E22000E784CA40E784E68458C43F492402CA4054E784CA40E784E6845849351439A7E276
:20E24000B6C00284EFB7C0025D2603A6E039A68017FF595A20F23402B6C0028A10B7C00253
:20E2600086FFBDE1AC3502393404C6FF86FF17FF3B4D2A055A26F586FF35043934144FB756
:20E28000BDFFB6C00284EFB7C002C60A86FFBDE1AC5A26F8B6C0028A10B7C00286FFBDE199
:20E2A000AC86FFBDE1ACC6068EE34ABDE23EBDE26881FF260EBDE2568EE49ABDE08A351453
:20E2C00086FF39C6068EE350BDE23EBDE268810126F186FFBDE1AC86FFBDE1AC86FFBDE1B5
:20E2E000AC86FFBDE1ACBDE256C6068EE368BDE23EBDE268BDE256810126EEC6068EE362FB
:20E30000BDE23EBDE268BDE256840126DCC6068EE36EBDE23EBDE268840126F186FFBDE14F
:20E32000AC8440B7BDFF86FFBDE1AC86FFBDE1AC86FFBDE1ACBDE256C6068EE35CBDE23E22
:20E34000BDE268BDE25635144F3940000000009548000001AA874D00000000FF5000020003
:20E3600000FF6940FF8000FF7700000000FF7A00000000FF34168EBD008651A7847DBDFFB8
:20E3800026136F04A66B48A703A66A49A702A66949A7012010A668A701A669A702A66AA777
:20E3A00003A66BA7048601A705C606BDE23EBDE268270EBDE0AF86FFBDE1ACBDE25635162B
:20E3C0003986FFBDE1AC81FF27F7AE661F10C30200EDE386FFBDE1ACA780ACE426F5ECE151
:20E3E00086FFBDE1AC86FFBDE1AC86FFBDE1ACBDE25635163934168EBD008658A7847DBD5F
:20E40000FF26136F04A66B48A703A66A49A702A66949A7012010A668A701A669A702A66A9E
:20E42000A703A66BA7048601A705C606BDE23EBDE268265B86FFBDE1ACAE661F10C302003B
:20E44000EDE386FEBDE1ACA680BDE1ACACE426F7326286FFBDE1AC86FFBDE1AC86FFBDE1AC
:20E46000AC841F8105262886FFBDE1AC4D27F88EE356C606BDE23EBDE268A7E286FFBDE11B
:20E48000AC1F89A6E084FE10830000270220D886FFBDE1ACBDE2563516394E6F2053442090
:07E4A000636172640D0A00C4
:20E500008EE54517FB848EE55717FB7E8EBE0017FBD98EBE00E68027EDCA20C1612C051702
:20E52000025E20E2C17A2D0517025520D9C06158108EE580ADB5860DBDE077860ABDE0777C
:20E5400020C41320FD0D0A414843532036383039205342430D0A003B2000556E696D706C9B
:12E56000656D656E74656420636F6D6D616E640D0A00B1
:20E58000E9A9E9C2E780E7B6E7C9E830E827E8F8E27CE780E780E857E89FE780E8FFE780DC
:20E5A000E780E7A0E780E780E780E780E7ABE780E780E78061202D206175746F626F6F74CF
:20E5C0000D0A62202D20626F6F740D0A642076616C2061646472202D206465706F736974A3
:20E5E0000D0A652061646472205B2D616464725D202D206578616D696E650D0A662061648E
:20E60000647220636F756E742076616C202D2066696C6C2061726561206F66206D656D6FE8
:20E6200072790D0A672061646472202D20676F0D0A68202D2068656C700D0A69202D206988
:20E640006E697469616C697A6520534420636172640D0A6C2061646472202D206C6F616435
:20E660000D0A6D2070616765206672616D65202D20736574206D656D6F7279206D61700D51
:20E680000A702061646472202D2070726F6772616D20656570726F6D0D0A7220626C6F63EF
:20E6A0006B2061646472202D2072656164206D6963726F534420626C6F636B0D0A7720621F
:20E6C0006C6F636B2061646472202D207772697465206D6963726F534420626C6F636B0042
:0FE6E00073796E746178206572726F720D0A0023
:20E780008EE55A17F90439BDE127BDE17F10AF668600A765A764BDE127BDE17F10AF62397F
:20E7A000327ABDE787BDE374326639327ABDE787BDE3F5326639BDE127BDE1553402BDE1D4
:20E7C00027BDE17F3502A7A439BDE127BDE17FBDE1274D2606A6A4BDE0AF39A680812D2651
:20E7E0003F10AFE3BDE127BDE17FAEE110AFE35FE7E2AC612E24A680BDE0AFE6E05CC11039
:20E800002C09E7E28620BDE07720E75FE7E2860DBDE077860ABDE07720D8E6E010AEE13930
:20E820008EE6E0BDE08A39BDE127BDE17FADA439BDE127BDE17F3420BDE127BDE17F34204C
:20E84000EC62E3E4EDE4BDE127BDE155AE62A780ACE426FA326439BDE127BDE17F10AFE3E0
:20E86000A6E0BDE0AFA6E0BDE0AF863ABDE0778620BDE077A6A4BDE0AF8620BDE077863E52
:20E88000BDE0778620BDE0778EBE00BDE0EB8EBE00BDE1274D2707BDE155A7A020BF39BD3B
:20E8A000E127BDE1553402BDE127BDE1553504340281032613B6C002F100042D048A0120FA
:20E8C0000284FEB7C002A6E43D35028EE8F5A68643B4C0008EE8DDAA85B7C00039000108B4
:20E8E0000940414849000210128082909200042024000420244992248EE5B417F78C39BD6F
:20E90000E27C4D270139327A4FA764A763A762A7618601A765A7E4BDE37432668EE9BFBD0D
:20E92000E08A8EBE00BDE0EBA684813F26048D4020EA108E01028EBE008D57270531A820B8
:20E9400020F4327A4FA764A763A762A7618601A7E4A63EE63FA765BDE3745A270DE7E2E60A
:20E9600061CB02E761E6E04C20EB3266BD010039108E0102A6A4270A1F21BDE08A8620BD8F
:20E98000E07731A820108C03002DE98EE554BDE08A395FA680A1A526064D27035C20F43934
:20E9A0004155544F424F4F5400BDEA814D2701398EBE00108EE9A0A6A0A78026FA20334081
:20E9C0002000BDEA814D2701398EE9BFBDE08A8EBE00BDE0EBB6BE00813F2605BDEC532095
:20E9E000E88EBE00A684270A81612D0284DFA78020F28EBE00BDEBFC4D270139B6BAF234A7
:20EA000002B6BAF13402B6BAF03402B6BAEF3402A6A81AF6BAEE3DEB63E763A962A762A69D
:20EA2000A81BF6BAEE3DEB62E762A961A761B6BAFF810B261AA6A814F6BAEE3DEB61E76184
:20EA4000A9E4A7E4A6A815F6BAEE3DEBE4E7E4CC01003406E6A81D545CBDE3745A271CA60D
:20EA6000654CA7654FA964A7644FA963A7634FA962A762A6E48B02A7E420DE3266BD0100B4
:20EA800039BDE27C4D2701398E0000341034108EBB003410BDE3743266108EBCBEA624B78C
:20EAA000BAFFA628B7BAFE3402A629B7BAFD3402A62AB7BAFC3402A62BB7BAFB34028EBB88
:20EAC000003410BDE3743266108EBB0BA622B7BAEEA624E623F3BAFDFDBAF9FCBAFBC90014
:20EAE0008900FDBAF7B6BAFF810B1026007F7FBAF37FBAF4E625A6A8193DFDBAF5E625A6CA
:20EB0000A81A3DF3BAF4FDBAF4E625A6A81B3DF3BAF3FDBAF3E625A6A81C3DFBBAF3F7BAA4
:20EB2000F3B6BAF6BBBAFAB7BAF6B6BAF5B9BAF9B7BAF5B6BAF4B9BAF8B7BAF4B6BAF3B91F
:20EB4000BAF7B7BAF3B6BAEE483402B6BAF6A0E0B7BAF2B6BAF58200B7BAF1B6BAF482004C
:20EB6000B7BAF0B6BAF38200B7BAEF4F397FBAF37FBAF4E625A62B3DFDBAF5E625A62C3D2F
:20EB8000F3BAF4FDBAF4B6BAF6BBBAFAB7BAF6B6BAF5B9BAF9B7BAF5B6BAF4B9BAF8B7BA76
:20EBA000F4B6BAF3B9BAF7B7BAF3B6BAEE483402B6BAF6A0E0B7BAF2B6BAF58200B7BAF1C2
:20EBC000B6BAF48200B7BAF0B6BAF38200B7BAEFB6BB12F6BB114456445644564456FBBA47
:20EBE000F2F7BAF2B9BAF1B7BAF1B6BAF08900B7BAF0B6BAEF8900B7BAEF4F393410FCBAA6
:20EC0000F53406FCBAF334068EBB003410BDE374108EBB006DA42724A62B84082608AE66ED
:20EC200017FD6F4D271231A820108CBD002DE5EC64C30001ED6420D532684F3932688EECD7
:20EC400047BDE08A86FF396E6F7420666F756E640D0A00FCBAF53406FCBAF334068EBB00D3
:20EC60003410BDE3748EBB006D8410270087A60B8408266D5FA68581202703BDE0775CC1EE
:20EC80000826F2862EBDE077A68581202703BDE0775CC10B26F28620BDE077B6BAFF810B8D
:20ECA000260CA68815BDE0AFA68814BDE0AFA6881BBDE0AFA6881ABDE0AF8620BDE077A67C
:20ECC000881FBDE0AFA6881EBDE0AFA6881DBDE0AFA6881CBDE0AF34108EE554BDE08A3515
:20ECE000103088208CBD00102DFF7DEC64C30001ED6416FF6D3266393410FCBAF53406FC4D
:11ED0000BAF334068EBB003410BDE374108EBB0039E8
:20FE00003B8683B7C403860CB7C4007FC4018603B7C4038630F6C405C42027F9B7C400B61E
:20FE2000C000102600BE86FFB7C000B1C000102600B2B6C002102600AB8671B7C002B1C07F
:20FE4000021026009F8604B7C001B7C003B6C001843F81041026008CB6C003843F810410FD
:20FE60002600818626B7C000B1C00026778611B7C002B6C0028471811126698631F6C40596
:20FE8000C42027F9B7C4008E0000AF818CC00026F98E0000AC81264C8CC00026F78632F676
:20FEA000C405C42027F9B7C40010CEC0007FBAEB86FFB7C0008671B7C0028604B7C001B713
:20FEC000C0038626B7C0008611B7C0028683B7C403860CB7C4007FC4018603B7C403BDE9A7
:04FEE000A97EE00017
:0EFFF200FE00FE00FE00FE00FE00FE00FE010E
:00000001FF
